:020000040000FA
:100000000C945D000C9485000C9485000C94850084
:100010000C9485000C9485000C9485000C9485004C
:100020000C9485000C9485000C9485000C9485003C
:100030000C9485000C9485000C9485000C9485002C
:100040000C94CA040C9485000C943A050C94140585
:100050000C9485000C9485000C9485000C9485000C
:100060000C9485000C94850000000008000201003B
:100070000003040700000000000000000000000072
:10008000250028002B0000000000240027002A0083
:10009000040404040404040402020202020203032E
:1000A0000303030301020408102040800102040836
:1000B00010200102040810206C0511241FBECFEF90
:1000C000D8E0DEBFCDBF13E0A0E0B1E0E0EBF5E1AA
:1000D00002C005900D92A232B107D9F723E0A2E247
:1000E000B3E001C01D92AC3EB207E1F710E0CDE5F0
:1000F000D0E004C02197FE010E94D00ACC35D10780
:10010000C9F70E94B7050C94D60A0C94000090E041
:10011000FC01EC55FF4F249180579F4FFC018491C7
:10012000882399F090E0880F991FFC01EA57FF4F50
:10013000A591B491FC01E458FF4F859194918FB73C
:10014000F894EC91E22BEC938FBF089590E0FC01C2
:10015000E859FF4F2491FC01EC55FF4F3491FC010D
:10016000E057FF4FE491EE23C9F0222339F023300A
:1001700001F1A8F4213019F1223029F1F0E0EE0F5D
:10018000FF1FE458FF4FA591B4918FB7F894EC91FD
:10019000611126C030953E233C938FBF08952730D0
:1001A000A9F02830C9F0243049F7809180008F7D74
:1001B00003C0809180008F7780938000DFCF84B56B
:1001C0008F7784BDDBCF84B58F7DFBCF8091B0006E
:1001D0008F778093B000D2CF8091B0008F7DF9CF20
:1001E0003E2BDACF8E50806480937C0080917A0021
:1001F000806480937A0080917A0086FDFCCF8091A4
:1002000078009091790008953FB7F8948091330376
:1002100090913403A0913503B091360326B5A89B85
:1002200005C02F3F19F00196A11DB11D3FBFBA2F88
:10023000A92F982F8827BC01CD01620F711D811D48
:10024000911D42E0660F771F881F991F4A95D1F7CD
:1002500008958F929F92AF92BF92CF92DF92EF92CA
:10026000FF924B015C010E9404016B017C010E9422
:1002700004016C197D098E099F09683E7340810550
:100280009105A8F321E0821A9108A108B10888EE2F
:10029000C80E83E0D81EE11CF11C81149104A10456
:1002A000B10429F7FF90EF90DF90CF90BF90AF900F
:1002B0009F908F900895AF92BF92CF92DF92EF926E
:1002C000FF920F931F93CF93DF936C017B018B0100
:1002D000040F151FEB015E01AE18BF08C017D10750
:1002E00059F06991D601ED91FC910190F081E02DDA
:1002F000C6010995892B79F7C501DF91CF911F912F
:100300000F91FF90EF90DF90CF90BF90AF90089546
:10031000FC01538D448D252F30E0842F90E0821B0B
:10032000930B541710F0CF96089501970895FC0190
:10033000918D828D981761F0A28DAE0FBF2FB11DE8
:100340005D968C91928D9F5F9F73928F90E0089540
:100350008FEF9FEF0895FC01918D828D981731F0FA
:10036000828DE80FF11D858D90E008958FEF9FEF4E
:100370000895FC01918D228D892F90E0805C9F4F24
:10038000821B91098F739927089587E393E00E9458
:10039000B90121E0892B09F420E0822F089580E043
:1003A00090E0892B29F00E94C50181110C94000076
:1003B0000895FC01A48DA80FB92FB11DA35ABF4FFA
:1003C0002C91848D90E001968F739927848FA68954
:1003D000B7892C93A089B1898C91837080648C93A8
:1003E000938D848D981306C00288F389E02D808157
:1003F0008F7D80830895EF92FF920F931F93CF9389
:10040000DF93EC0181E0888F9B8D8C8D98131AC04F
:10041000E889F989808185FF15C09FB7F894EE8936
:10042000FF896083E889F989808183708064808393
:100430009FBF81E090E0DF91CF911F910F91FF90DE
:10044000EF900895F62E0B8D10E00F5F1F4F0F7386
:100450001127E02E8C8D8E110CC00FB607FCFACF41
:10046000E889F989808185FFF5CFCE010E94D90105
:10047000F1CFEB8DEC0FFD2FF11DE35AFF4FF08212
:100480009FB7F8940B8FEA89FB8980818062CFCF78
:10049000CF93DF93EC01888D8823B9F0AA89BB89BB
:1004A000E889F9898C9185FD03C0808186FD0DC0A6
:1004B0000FB607FCF7CF8C9185FFF2CF808185FFC7
:1004C000EDCFCE010E94D901E9CFDF91CF91089500
:1004D000089590E080E008958091000190910101DD
:1004E0009C01215031092D30310578F482E390E0F0
:1004F00090932B0380932A038CE190E090932D033B
:1005000080932C038AE590E014C09C012E503109A1
:100510002A30310598F486E490E090932B03809381
:100520002A038CE190E090932D0380932C0384EFB9
:1005300091E0909329038093280308959C0128510A
:1005400031092A30310590F22A5031092031310524
:1005500010F3205131092A30310548F48CE390E042
:1005600090932B0380932A0382E190E0C7CFCC972E
:100570008630910548F487E390E090932B038093B5
:100580002A0385E190E0BACF0A97B8F68CE390E0B1
:10059000F4CFCF93DF93EC0160E08E810E94A60040
:1005A00061E08E810E94A60060E08E810E94A6001C
:1005B0008BE891E00197F1F7DF91CF910895CF9209
:1005C000DF92EF92FF920F931F93CF93DF936C0113
:1005D0007C0187E0E80EF11CD0E0C0E0062F10E0BF
:1005E000B8010C2E02C0759567950A94E2F7617008
:1005F000F70181917F010E94A6002196C430D105A8
:1006000079F7C601DF91CF911F910F91FF90EF9085
:10061000DF90CF900C94C902CF92DF92EF92FF92BD
:100620000F931F93CF93DF93EC01F62E642F8C81F1
:100630000E94A6008D818F3F19F060E00E94A60005
:100640000F2D10E08F8584FF25C06E0187E0C80E56
:10065000D11CF12CE12CB8010E2C02C075956795C8
:100660000A94E2F76170F60181916F010E94A60081
:10067000FFEFEF1AFF0A88E0E816F10461F7CE01F8
:10068000DF91CF911F910F91FF90EF90DF90CF906E
:100690000C94C902B80184E0759567958A95E1F7D5
:1006A000CE010E94DF026F2DCE01DF91CF911F910D
:1006B0000F91FF90EF90DF90CF900C94DF0240E01D
:1006C000682F84ED93E00C940C03CF93DF9361309B
:1006D00029F09091E30398609093E3036093E7031C
:1006E0001092E80390E49093E9038093EA03805C1E
:1006F0008093EB038091D8030E9487008091D903F7
:100700008F3F11F00E9487008091DA030E948700DA
:10071000C4EDD3E09E01245D33408091E30384FD6A
:100720000AC084E090E02196281739073CF48E81B6
:100730000E948700EFCF88E090E0F5CF8BE39DE04B
:100740000197F1F760E08091D8030E94A60060E075
:100750008091DA030E94A6008091D9038F3F19F09F
:1007600060E00E94A6008091E30384FD39C063E04D
:1007700084ED93E00E94DF02CBE4D6E4CE01019742
:10078000F1F763E084ED93E00E94DF022197F1F737
:1007900063E084ED93E00E94DF0283E592E001973D
:1007A000F1F762E084ED93E00E94DF028091E303C1
:1007B00080620E945F0384E08093E4038CE00E94E7
:1007C0005F0381E00E945F038BE39FE10197F1F7F4
:1007D00082E08093E50386E0DF91CF910C945F0384
:1007E00080620E945F038BE496E40197F1F78091A9
:1007F000E30380620E945F0383E592E00197F1F7D3
:100800008091E30380620E945F03D0CF9091E70361
:10081000691710F06FEF690FE62FF0E0EC52FC4F14
:100820009489890F80680C945F0341E00E940C0357
:1008300081E090E00895FB0101900020E9F73197F5
:10084000AF01461B570BDC01ED91FC910280F38157
:10085000E02D0994CF93DF93BC0187E393E00E94DE
:100860001B04EC0160E271E087E393E00E941B044B
:100870008C0F9D1FDF91CF9108954F925F926F92E1
:100880007F928F929F92AF92BF92CF92DF92EF9220
:10089000FF920F931F93CF93DF93CDB7DEB7A1974E
:1008A0000FB6F894DEBF0FBECDBF8C016B01770F82
:1008B000EE08FF08F7FE49C0DC01ED91FC910190C4
:1008C000F081E02D6DE209955C0122273327A90113
:1008D0002C193D094E095F0919A2FE01B1967F014D
:1008E0009AE0492E512C612C712CCA01B901A30147
:1008F00092010E949A0A605DD7016E937D012115D5
:1009000031054105510589F790E080E0109721F00D
:10091000BD01C8010E941B048A0D9B1DA1960FB644
:10092000F894DEBF0FBECDBFDF91CF911F910F9125
:10093000FF90EF90DF90CF90BF90AF909F908F90FF
:100940007F906F905F904F900895A701960119A234
:10095000FE01B1967F018AE0882E912CA12CB12C4A
:10096000CA01B901A50194010E949A0A605DD701EC
:100970006E937D01211531054105510589F790E000
:1009800080E0109759F2BD01C8010E941B04C6CF38
:100990000C941B041F920F920FB60F9211242F93E9
:1009A0003F938F939F93AF93BF9380912F03909129
:1009B0003003A0913103B091320330912E0323E034
:1009C000230F2D3758F50196A11DB11D20932E033D
:1009D00080932F0390933003A0933103B09332039D
:1009E0008091330390913403A0913503B091360385
:1009F0000196A11DB11D8093330390933403A093FE
:100A00003503B0933603BF91AF919F918F913F9182
:100A10002F910F900FBE0F901F90189526E8230F6F
:100A20000296A11DB11DD2CF1F920F920FB60F9249
:100A300011242F933F934F935F936F937F938F93E3
:100A40009F93AF93BF93EF93FF9387E393E00E944D
:100A5000D901FF91EF91BF91AF919F918F917F91BC
:100A60006F915F914F913F912F910F900FBE0F901B
:100A70001F9018951F920F920FB60F9211242F936B
:100A80008F939F93EF93FF93E0914703F091480377
:100A90008081E0914D03F0914E0382FD1BC0908157
:100AA000809150038F5F8F7320915103821741F023
:100AB000E0915003F0E0E95CFC4F958F8093500388
:100AC000FF91EF919F918F912F910F900FBE0F90FB
:100AD0001F9018958081F4CFE7E3F3E01382128230
:100AE00088EE93E0A0E0B0E084839583A683B7838B
:100AF00086E091E09183808385EC90E09587848700
:100B000084EC90E09787868780EC90E0918B808BD7
:100B100081EC90E0938B828B82EC90E0958B848BC0
:100B200086EC90E0978B868B118E128E138E148E2E
:100B3000E4EDF3E01382128288E191E091838083F7
:100B40008DE084838FEF85838CE086838BE08783C1
:100B50008AE0808789E0818788E08287138614860F
:100B600015861686178661E080E10C9465037894FB
:100B700084B5826084BD84B5816084BD85B58260A2
:100B800085BD85B5816085BD80916E008160809353
:100B90006E001092810080918100826080938100BC
:100BA00080918100816080938100809180008160CC
:100BB000809380008091B10084608093B100809127
:100BC000B00081608093B00080917A00846080934F
:100BD0007A0080917A00826080937A0080917A0016
:100BE000816080937A0080917A00806880937A0097
:100BF0001092C10083E291E00E942A048DE492E009
:100C00000E942A048DE492E00E942A0464E084E1B8
:100C10000E946503E0914703F091480382E08083DE
:100C2000E0914303F09144031082E0914503F09179
:100C300046038FEC808310924F03E0914B03F091B9
:100C40004C0386E08083E0914903F0914A03808160
:100C500080618083E0914903F0914A03808188603C
:100C60008083E0914903F0914A038081806880830A
:100C7000E0914903F0914A0380818F7D808385E470
:100C800091E00E942A0483E291E00E942A0481E517
:100C900091E00E942A0486E00E9487008AE691E0A3
:100CA0000E942A0487E00E94870082E891E00E9467
:100CB0002A0485E00E94870089E991E00E942A04C5
:100CC00084E00E94870085EB91E00E942A0483E083
:100CD0000E9487008EEC91E00E942A0482E00E942C
:100CE000870087EE91E00E942A0468EE73E080E0BE
:100CF00090E00E9429018CE492E00E942A0482E0A4
:100D000092E00E942A0483E291E00E942A048EE08D
:100D1000A82EB12C94EFE92EFF24F394CC24CA948E
:100D200023E0D22ECAE0D0E030E0832E30E0932ED4
:100D30008DE092E00E942A0483E291E00E942A045E
:100D40002FB7F89480912F0390913003A091310335
:100D5000B09132032FBF409124035091250360913D
:100D60002603709127038C019D01041B150B260B94
:100D7000370BB901A8014E3051056105710518F115
:100D80008093240390932503A0932603B093270315
:100D900080912203909123030196909323038093E3
:100DA0002203B5010E94860A892B69F48091000113
:100DB000909101010196909301018093000188E1D7
:100DC00092E00E942A048EE00E94F2009C012E9D77
:100DD000C0012F9D900D3E9D900D1124B6010E94E3
:100DE000860A8B0160E080E00E94060465E372E001
:100DF00084ED93E00E94C80465E372E087E393E02A
:100E00000E94C804B80184ED93E00E943D04B8013B
:100E100087E393E00E943D0469E372E084ED93E090
:100E20000E94C80489E392E00E942A048FE00E9495
:100E3000F200BC01990F880B990B0E94FA0923E379
:100E400033E343EF5FE30E9450090E94C2092B0184
:100E500060E087E00E94060461E472E084ED93E0C4
:100E60000E94C80461E472E087E393E00E94C80432
:100E7000B20184ED93E00E943D04B20187E393E068
:100E80000E943D0465E472E084ED93E00E94C80492
:100E900085E492E00E942A0480E10E94F200BE01F3
:100EA0000E94860A8B0161E080E00E9406046FE4E4
:100EB00072E084ED93E00E94C8046FE472E087E37F
:100EC00093E00E94C804B80184ED93E00E943D04C1
:100ED000B80187E393E00E943D0463E572E084ED8E
:100EE00093E00E94C80483E592E00E942A0481E115
:100EF0000E94F200BE010E94860A8B0161E08BE035
:100F00000E9406046BE572E084ED93E00E94C80441
:100F10006BE572E087E393E00E94C804B80184EDBA
:100F200093E00E943D04B80187E393E00E943D04F2
:100F30006FE572E084ED93E00E94C8048FE592E0D3
:100F40000E942A04009100011091010160E08FE0ED
:100F50000E94060464E672E084ED93E00E94C804F7
:100F600068E672E087E393E00E94C804B80184ED6C
:100F700093E00E943D04B80187E393E00E943D04A2
:100F800060E271E087E393E00E941B0467E772E090
:100F900087E393E00E94C804609100017091010111
:100FA00087E393E00E943D046BE772E087E393E000
:100FB0000E94C80460912A0370912B0387E393E099
:100FC0000E943D0462E872E087E393E00E94C80457
:100FD00060912C0370912D0387E393E00E943D0400
:100FE00069E872E087E393E00E94C80460912803F7
:100FF0007091290387E393E00E943D0460E271E071
:1010000087E393E00E941B0461E082E00E94A60057
:1010100064EF71E080E090E00E94290160E082E0EE
:101020000E94A60082E10E94F200853F91400CF4EC
:101030009CC066E970E080E090E00E94290161E0D8
:1010400083E00E94A60080E992E00E942A048FE0DB
:101050000E94F2008C010E946C02B801110F880BF3
:10106000990B0E94FA0923E333E343EF5FE30E9405
:1010700050090E94C2092091280330912903621768
:1010800073070CF07FC061E086E00E94A60062E07A
:1010900080E00E94060467EC72E084ED93E00E9419
:1010A000C80488EC92E00E942A0480E10E94F200C9
:1010B0008C010E946C02C801BE010E94860A8091C8
:1010C0002A0390912B03681779070CF06CC061E03C
:1010D00087E00E94A60062E08AE00E9406046EEDAE
:1010E00072E084ED93E00E94C8048FED92E00E94CC
:1010F0002A048EE00E94F2008C010E9DC0010F9D1B
:10110000900D1E9D900D1124B6010E94860A8B0140
:101110000E946C0280912C0390912D0308171907EF
:101120000CF052C061E084E00E94A60063E080E021
:101130000E94060463EF72E084ED93E00E94C8040D
:1011400083EF92E00E942A0460E085E00E94A600FE
:1011500063E08AE00E9406046CEF72E084ED93E0A5
:101160000E94C8048CEF92E055C066E970E080E010
:1011700090E00E94290160E083E00E94A6008FEACF
:1011800092E063CF60E086E00E94A60062E080E02B
:101190000E94060462ED72E084ED93E00E94C804B0
:1011A00083ED92E080CF60E087E00E94A60062E0DD
:1011B0008AE00E94060468EE72E084ED93E00E94EB
:1011C000C80489EE92E093CF60E0801791070CF09D
:1011D00057C084E00E94A60063E080E00E940604FD
:1011E00066E073E084ED93E00E94C80486E093E03B
:1011F0000E942A0461E085E00E94A60063E08AE084
:101200000E94060460E173E084ED93E00E94C8044C
:1012100080E193E00E942A0461E082E00E94A6003F
:1012200064EF71E080E090E00E94290160E082E0DC
:101230000E94A6008CE492E00E942A0489E193E0D7
:101240000E942A0483E291E00E942A0461E082E085
:101250000E94A60064EF71E080E090E00E94290106
:1012600060E082E00E94A6008114910409F460CD40
:101270000E94C501882309F45BCD0E94000058CD6F
:1012800084E00E94A60063E080E00E94060466E01D
:1012900073E084ED93E00E94C80486E093E052CFAF
:1012A0000E9464090C944C0A0E94450A58F00E945E
:1012B0003E0A40F029F45F3F29F00C94350A5111A1
:1012C0000C94800A0C943B0A0E945D0A68F39923EF
:1012D000B1F3552391F3951B550BBB27AA27621732
:1012E0007307840738F09F5F5F4F220F331F441F3F
:1012F000AA1FA9F335D00E2E3AF0E0E832D0915073
:101300005040E695001CCAF72BD0FE2F29D0660F5F
:10131000771F881FBB1F261737074807AB07B0E8A2
:1013200009F0BB0B802DBF01FF2793585F4F3AF0A8
:101330009E3F510578F00C94350A0C94800A5F3F6B
:10134000E4F3983ED4F3869577956795B795F7952E
:101350009F5FC9F7880F911D9695879597F9089516
:10136000E1E0660F771F881FBB1F621773078407B2
:10137000BA0720F0621B730B840BBA0BEE1F88F7C1
:10138000E09508950E94C9096894B1110C94800AEF
:1013900008950E94650A88F09F5798F0B92F992701
:1013A000B751B0F0E1F0660F771F881F991F1AF050
:1013B000BA95C9F714C0B13091F00E947F0AB1E02C
:1013C00008950C947F0A672F782F8827B85F39F02B
:1013D000B93FCCF3869577956795B395D9F73EF4E9
:1013E00090958095709561957F4F8F4F9F4F089591
:1013F000E89409C097FB3EF49095809570956195AF
:101400007F4F8F4F9F4F9923A9F0F92F96E9BB2764
:101410009395F695879577956795B795F111F8CFE0
:10142000FAF4BB0F11F460FF1BC06F5F7F4F8F4F4B
:101430009F4F16C0882311F096E911C0772321F041
:101440009EE8872F762F05C0662371F096E8862FD9
:1014500070E060E02AF09A95660F771F881FDAF730
:10146000880F9695879597F9089597F99F6780E873
:1014700070E060E008959FEF80EC089500240A94E6
:101480001616170618060906089500240A9412165F
:101490001306140605060895092E0394000C11F492
:1014A000882352F0BB0F40F4BF2B11F460FF04C03F
:1014B0006F5F7F4F8F4F9F4F089557FD9058440F98
:1014C000551F59F05F3F71F04795880F97FB991FA3
:1014D00061F09F3F79F08795089512161306140660
:1014E000551FF2CF4695F1DF08C0161617061806ED
:1014F000991FF1CF86957105610508940895E894C8
:10150000BB2766277727CB0197F9089597FB072E0E
:1015100016F4009407D077FD09D00E94BC0A07FC9E
:1015200005D03EF4909581959F4F089570956195F3
:101530007F4F0895A1E21A2EAA1BBB1BFD010DC00F
:10154000AA1FBB1FEE1FFF1FA217B307E407F50773
:1015500020F0A21BB30BE40BF50B661F771F881F4F
:10156000991F1A9469F760957095809590959B01E5
:10157000AC01BD01CF010895AA1BBB1B51E107C0FF
:10158000AA1FBB1FA617B70710F0A61BB70B881F13
:10159000991F5A95A9F780959095BC01CD010895A2
:1015A000EE0FFF1F0590F491E02D0994F894FFCF02
:1015B000010000000000FB015B0188014802B90145
:1015C0009701AB010000000015045B01690268028D
:1015D0000D0A005F5F5F5F5F5F5F5F5F5F5F5F5F21
:1015E0005F5F5F5F5F5F5F5F5F5F5F5F5F5F5F5F0B
:1015F0005F5F5F5F0053455455505F424547494E1A
:10160000002D3E204261756420526174652073652F
:101610007420746F2039363030002D3E204F7574A1
:101620007075743A204C5F4C756D696E695F5069D6
:101630006E002D3E204F75747075743A204D5F50CA
:101640006F6D70615F50696E002D3E204F75747034
:1016500075743A204D5F56656E74696C61746F7273
:101660005F50696E002D3E204F75747075743A207E
:101670004C5F43616C647572615F50696E002D3E12
:10168000204F75747075743A204F5F506F77657294
:101690005F4F6E4F6666002D3E204F7574707574F7
:1016A0003A204C5F53797374656D5F537461747540
:1016B000730053455455505F454E4453004C4F4FB3
:1016C000505F5354415254003C213E20412054521B
:1016D00045435554204F2053415054414D414E41B4
:1016E000203C213E0020543D002743202020202084
:1016F00000204C3D004C782020202020202000207D
:10170000533D00252020202020200020483D00259A
:101710002020200020533A002053617074616D61D5
:101720006E61204E723A00773A2000207C70553A64
:101730002000207C70543A2000207C704C3A20001D
:101740003C44414E4745522832323056293E2053C0
:10175000757273613A204F4E203C2121213E003C9E
:10176000534146453E2053757273613A204F4646B9
:10177000203C2121213E00204C696768743A4F4E7D
:101780002000204C696768743A4F4646200020507C
:10179000756D703A4F4E20002050756D703A4F466F
:1017A000462000486561743A4F4E200056656E74BD
:1017B0003A4F46462000486561743A4F464620003D
:1017C00056656E743A4F4E20004C4F4F505F454E59
:0217D0004400D3
:107E0000112484B714BE81FFF0D085E080938100F7
:107E100082E08093C00088E18093C10086E0809377
:107E2000C20080E18093C4008EE0C9D0259A86E02C
:107E300020E33CEF91E0309385002093840096BBD3
:107E4000B09BFECF1D9AA8958150A9F7CC24DD24C4
:107E500088248394B5E0AB2EA1E19A2EF3E0BF2EE7
:107E6000A2D0813461F49FD0082FAFD0023811F036
:107E7000013811F484E001C083E08DD089C08234E0
:107E800011F484E103C0853419F485E0A6D080C0E4
:107E9000853579F488D0E82EFF2485D0082F10E0AE
:107EA000102F00270E291F29000F111F8ED06801E7
:107EB0006FC0863521F484E090D080E0DECF843638
:107EC00009F040C070D06FD0082F6DD080E0C81688
:107ED00080E7D80618F4F601B7BEE895C0E0D1E017
:107EE00062D089930C17E1F7F0E0CF16F0E7DF06D8
:107EF00018F0F601B7BEE89568D007B600FCFDCFD4
:107F0000A601A0E0B1E02C9130E011968C91119780
:107F100090E0982F8827822B932B1296FA010C0160
:107F200087BEE89511244E5F5F4FF1E0A038BF0790
:107F300051F7F601A7BEE89507B600FCFDCF97BE46
:107F4000E89526C08437B1F42ED02DD0F82E2BD052
:107F50003CD0F601EF2C8F010F5F1F4F84911BD097
:107F6000EA94F801C1F70894C11CD11CFA94CF0C13
:107F7000D11C0EC0853739F428D08EE10CD085E9AC
:107F80000AD08FE07ACF813511F488E018D01DD067
:107F900080E101D065CF982F8091C00085FFFCCF94
:107FA0009093C60008958091C00087FFFCCF809118
:107FB000C00084FD01C0A8958091C6000895E0E648
:107FC000F0E098E1908380830895EDDF803219F02E
:107FD00088E0F5DFFFCF84E1DECF1F93182FE3DFCA
:107FE0001150E9F7F2DF1F91089580E0E8DFEE27F6
:047FF000FF270994CA
:027FFE00040479
:00000001FF
